:020000040000FA
:100000000C9463000C948B000C948B000C948B006C
:100010000C948B000C948B000C948B000C948B0034
:100020000C948B000C948B000C948B000C948B0024
:100030000C948B000C948B000C948B000C948B0014
:100040000C94D1040C948B000C948B000C948B00BA
:100050000C948B000C948B000C948B000C948B00F4
:100060000C948B000C948B000000000024002700EF
:100070002A000000000023002600290000000000E4
:10008000250028002B0004040404040404040202D4
:100090000202020203030303030301020408102007
:1000A0004080010204081020010204081020000012
:1000B0000008000201000003040700000000000027
:1000C00000006B06F40611241FBECFEFD8E0DEBFA0
:1000D000CDBF11E0A0E0B1E0E8ECF2E102C0059094
:1000E0000D92AA31B107D9F723E0AAE1B1E001C02E
:1000F0001D92A536B207E1F710E0C2E6D0E004C0D9
:100100002197FE010E942C08C136D107C9F70E9431
:100110001B050C9457090C9400000F931F93CF9369
:10012000DF938617970709F45BC0E0910B01F0910C
:100130000C0100910D0110910E01BF016150710978
:10014000009739F08130910509F040C0BF016F5F21
:100150007F4FA801C0910701D0910801A09109012A
:10016000B0910A0184E0EE0FFF1F8A95E1F7E00FDE
:10017000F11FEE0FFF1FEF59FE4F208131812150FB
:100180003109FE0114E0EE0FFF1F1A95E1F7EA0FA7
:10019000FB1FEE0FFF1FEF59FE4F81E00190F08132
:1001A000E02D2E173F0709F480E091E0C617D7072E
:1001B00009F090E021E0A417B50709F020E0922BA8
:1001C0008923DF91CF911F910F910895A801029784
:1001D00021F441505109BF01BDCF4F5F5F4FFBCFAD
:1001E00081E0EFCFCF92DF92EF92FF920F931F93B8
:1001F00020914D0130914E0182179307E8F58B0154
:1002000022273327C52ED62EE72EFF244C2D5091C2
:100210005301552371F0E52FF0E0E09FB001E19F1D
:10022000700DF09F700D1124072F5C9D600111244B
:100230004D2DE0915901209154013091550150917B
:100240005601E51320C0BC01660F771F860F971F6C
:10025000820F931FE0915601E80FF92FF11D0083E3
:10026000E0915701E80FF92FF11D408320915801CB
:10027000820F911DFC0110821F910F91FF90EF9052
:10028000DF90CF900895880F991F880F991F820FD4
:10029000931FE80FF92FF11D1082DCCF833081F01E
:1002A00028F4813099F08230A9F008958730A9F0C0
:1002B0008830C9F08430B1F4809180008F7D03C014
:1002C000809180008F7780938000089584B58F7728
:1002D00084BD089584B58F7DFBCF8091B0008F776A
:1002E0008093B00008958091B0008F7DF9CFCF93B7
:1002F000DF93282F30E0F901E255FF4F8491F90197
:10030000E656FF4FD491F901EA57FF4FC491CC2331
:1003100091F081110E944E01EC2FF0E0EE0FFF1FD3
:10032000E458FF4FA591B4918FB7F894EC91D09514
:10033000DE23DC938FBFDF91CF910895CF93DF93BE
:10034000282F30E0F901E255FF4F8491F901E6567C
:10035000FF4FD491F901EA57FF4FC491CC23A1F08C
:1003600081110E944E01EC2FF0E0EE0FFF1FEE58BE
:10037000FF4FA591B491EC91ED2381E090E009F459
:1003800080E0DF91CF91089580E090E0FACFCF93A5
:10039000DF9390E0FC01E656FF4F24918A579F4F70
:1003A000FC0184918823C9F090E0880F991FFC011B
:1003B000E859FF4FA591B491FC01E458FF4FC59156
:1003C000D49161110DC09FB7F8948C912095822330
:1003D0008C938881282328839FBFDF91CF91089534
:1003E000623051F49FB7F8943C91822F809583231B
:1003F0008C93E8812E2BEFCF8FB7F894EC912E2BB6
:100400002C938FBFEACF3FB7F8948091470190912A
:100410004801A0914901B0914A0126B5A89B05C0A9
:100420002F3F19F00196A11DB11D3FBFBA2FA92F73
:10043000982F8827BC01CD01620F711D811D911D70
:1004400042E0660F771F881F991F4A95D1F70895DC
:100450000F931F93CF93DF93CDB7DEB729970FB6D6
:10046000F894DEBF0FBECDBF80915401909155012D
:10047000892B09F47CC00E94030200915A0110915B
:100480005B0120915C0130915D016017710782076B
:10049000930740F460935A0170935B0180935C0171
:1004A00090935D0100915A0110915B0120915C01D4
:1004B00030915D01601B710B820B930B6C327140AC
:1004C00081059105C0F2F89480914F0190915001FF
:1004D0009A838983E0915401F0915501DF011196CF
:1004E0008081898790914B01E0915E01F0915F01DD
:1004F00080916001992309F445C09081982B9887D9
:100500009081809589238F838F818C8388E08B8372
:1005100058856F8149853B812C8189819A815083DF
:1005200047FD252F3A952083262F39F0441F00C020
:1005300000006083000000C0F2CF38E04D9160837E
:100540000000019761F7F0935F01E0935E01498736
:100550003B832C839A83898378940E94030260935F
:100560005A0170935B0180935C0190935D01299621
:100570000FB6F894DEBF0FBECDBFDF91CF911F91B4
:100580000F9108959081982B988790818095892369
:100590008F838F818E8388E08D8358856F81498515
:1005A0003D812E8189819A81508347FD252F00C08E
:1005B00000C0208300C000C000C000C000C0608335
:1005C0000000262F3A9541F0441F000000C000C0F3
:1005D00000C000C000C0E8CF38E04D9100C060838B
:1005E00000C0019709F7F0935F01E0935E0149872E
:1005F0003D832E83AFCFE0910B01F0910C0184E09D
:10060000EE0FFF1F8A95E1F780910D0190910E0189
:10061000E80FF91FEE0FFF1FEF59FE4F8081918108
:10062000029621F481E080930401089580E008950A
:100630000F931F93CF93DF93D0E0C0E010E000E072
:1006400040E050E0BA01C8018C0F9D1F0E94F200EB
:100650000F5F1F4F0031110599F76096C11581E0BA
:10066000D80761F70E942802DF91CF911F910F9167
:10067000089540910B0150910C0120910D01309192
:100680000E01FA0184E0EE0FFF1F8A95E1F7E20FF9
:10069000F31FEE0FFF1FEF59FE4F80819181181657
:1006A000190644F50E94180340E050E06FEF70E037
:1006B00090E080E00E94F20040E050E06FEF70E0D8
:1006C00081E090E00E94F20040E050E06FEF70E0C7
:1006D00082E090E00E94F20040E050E06FEF70E0B6
:1006E00083E090E00E94F2000E94280281E0809363
:1006F0004101089581E04031510508F480E091E026
:100700002031310508F490E0892B61F608950F93AC
:100710001F93CF93DF93E0910B01F0910C0174E0F4
:10072000EE0FFF1F7A95E1F780910D0190910E0178
:10073000E80FF91FEE0FFF1FEF59FE4F00811181E7
:10074000D0910001C0910101B0910201A09103017B
:1007500041E651E030E020E090E080E0FC01EE0F67
:10076000FF1FE40FF51F608171811616170644F410
:10077000601771072CF4B82FA92FD22FC32F8B012C
:1007800001968031910551F72F5F3F4F405E5F4FDB
:100790002031310509F7D0930001C0930101B093D6
:1007A0000201A0930301DF91CF911F910F91089552
:1007B000DF92EF92FF920F931F93CF93DF930097F7
:1007C00009F06AC0C0910B01D0910C01E0900D01BD
:1007D000F0900E01FE0174E0EE0FFF1F7A95E1F735
:1007E000EE0DFF1DEE0FFF1FEF59FE4F008111812F
:1007F000D0930801C0930701F0920A01E092090129
:100800002197D0930C01C0930B010E9439038111F1
:10081000C6C00E94FB02D82ECE0134E0880F991F7B
:100820003A95E1F78E0D9F1DFC01EE0FFF1FEF596A
:10083000FE4F0F5F1F4F1183008340E050E06FEFCA
:1008400070E00E94F200D1101DC0809100019091D3
:100850000101209102013091030144E0880F991FAA
:100860004A95E1F7820F931FFC01EE0FFF1FEF592E
:10087000FE4F1182108240E050E0BA010E94F20067
:100880000E9487030E942802DF91CF911F910F9150
:10089000FF90EF90DF9008958130910501F5C091B0
:1008A0000B01D0910C01E0900D01F0900E01FE01C2
:1008B00054E0EE0FFF1F5A95E1F7EE0DFF1DEE0F0E
:1008C000FF1FEF59FE4F00811181D0930801C093A3
:1008D0000701F0920A01E0920901219692CF82303D
:1008E0009105C9F580910B0190910C01C0910D010A
:1008F000D0910E018C01B4E0000F111FBA95E1F701
:10090000F801EC0FFD1FEE0FFF1FEF59FE4FE080C7
:10091000F1809093080180930701D0930A01C0935E
:1009200009012197D0930E01C0930D010E94390354
:10093000811135C00E94FB02D82EC8018C0F9D1F6B
:10094000FC01EE0FFF1FEF59FE4F2FEFE21AF20AE4
:10095000F182E08272CF039709F094CF80910B016E
:1009600090910C01C0910D01D0910E018C0174E0A9
:10097000000F111F7A95E1F7F801EC0FFD1FEE0F44
:10098000FF1FEF59FE4FE080F180909308018093A4
:100990000701D0930A01C09309012196C3CF80E0DB
:1009A00073CF1F920F920FB60F9211242F933F9384
:1009B0008F939F93AF93BF93809143019091440194
:1009C000A0914501B09146013091420123E0230FEF
:1009D0002D3758F50196A11DB11D2093420180933A
:1009E000430190934401A0934501B0934601809147
:1009F000470190914801A0914901B0914A010196A7
:100A0000A11DB11D8093470190934801A093490116
:100A1000B0934A01BF91AF919F918F913F912F91D8
:100A20000F900FBE0F901F90189526E8230F029687
:100A3000A11DB11DD2CF789484B5826084BD84B5E8
:100A4000816084BD85B5826085BD85B5816085BDC9
:100A500080916E00816080936E0010928100809181
:100A60008100826080938100809181008160809309
:100A70008100809180008160809380008091B1002E
:100A800084608093B1008091B00081608093B00059
:100A900080917A00846080937A0080917A008260ED
:100AA00080937A0080917A00816080937A008091AF
:100AB0007A00806880937A001092C10062E080E042
:100AC0000E94C70162E081E00E94C70162E082E00B
:100AD0000E94C70162E083E00E94C701809151013A
:100AE0009091520197FD07C061E00E94C70180917B
:100AF00051010E94770181E080934C0140E050E079
:100B00006FEF70E088E390E00E94F20040E050E078
:100B10006FEF70E088E490E00E94F20040E050E067
:100B20006FEF70E088E590E00E94F2000E942802DA
:100B300081E090E09093D2018093D10182E090E037
:100B40009093F2018093F10183E090E09093120280
:100B50008093110258E0452E512C612C712CCEEF60
:100B6000DFEF00E010E08091410181117AC00E9426
:100B70009E01E0900501F0900601892B09F078C0F4
:100B8000B70190E080E00E948D00811108C01092B2
:100B900006011092050190E080E00E94D803809148
:100BA00004018823D1F10E947107A30192010E94E0
:100BB000C90770933E0160933D010E947107A30134
:100BC00092010E94C9077093400160933F012091F8
:100BD0003D0130913E0194E0220F331F9A95E1F7D9
:100BE000C901860F971F9C01220F331FA9014F597E
:100BF0005E4F7A01FA0120813181121613069CF2B0
:100C000040E05FEF60E070E00E94F200F701D18306
:100C1000C0830E942802109204010E9403026B010B
:100C20007C0188EC882E912CA12CB12C0E9403020F
:100C30006C197D098E099F09683E734081059105F5
:100C4000A8F3F1E08F1A9108A108B10828EEC20EAE
:100C500023E0D21EE11CF11C81149104A104B10413
:100C600029F70115110509F47ECF0E9400007BCF02
:100C700081E00E949E01892B71F4B70181E090E030
:100C80000E948D0081118BCF81E090E0909306014E
:100C90008093050182CF82E00E949E01892B51F44E
:100CA000B70182E090E00E948D00811178CF82E050
:100CB00090E0ECCF83E00E949E01892B51F4B701B4
:100CC00083E090E00E948D00811169CF83E090E085
:100CD000DDCFC70162CFCF93DF9310924C0110920A
:100CE000530110925A0110925B0110925C01109214
:100CF0005D0181E080935901809356011092570164
:100D000092E09093580180934B01C0E0D3E0D093E0
:100D10005001C0934F0180E093E00E94320890930D
:100D2000550180935401009709F455C0FC019E01C0
:100D3000119221503040E1F780E091E090934E0114
:100D400080934D0186E090E0909352018093510191
:100D500080914C01882339F061E086E00E94C70150
:100D600086E00E947701ECE8F0E0E491F0E0EE0F1D
:100D7000FF1FE458FF4F8591949190935F018093FA
:100D80005E01E0EAF0E0E491E09360018BE08093A3
:100D900021018DE0809322018AE08093230110924B
:100DA00024018AE191E0909326018093250181E05E
:100DB000809327018093300122E030E030931D01C1
:100DC00020931C0180931E0180931F01109220012B
:100DD000DF91CF9108951092500110924F0110921F
:100DE0004E0110924D01AECF80912401882389F0ED
:100DF0009FB7F89480911B01882319F0815080934C
:100E00001B0180911B01811103C08CB58F7B8CBDB0
:100E10009FBF80912801909129010E94CE08809166
:100E20002A0190912B010E94CE088091540190914B
:100E300055010E94CE08809151019091520197FD79
:100E400003C060E00C94C70108958F929F92AF9207
:100E5000BF92CF92DF92EF92FF92CF93DF93EC019C
:100E6000688179818A819B81611571058105910570
:100E700021F464E279ED8BE597E02DE133EF41E079
:100E800050E00E94C90749015A019B01AC01A7EA41
:100E9000B1E40E94E8076B017C01ACEEB4EFA50160
:100EA00094010E94F607C60ED71EE81EF91EF7FE33
:100EB00006C081E0C81AD108E10880E8F80AC882B3
:100EC000D982EA82FB82C701B6019F77DF91CF9179
:100ED000FF90EF90DF90CF90BF90AF909F908F905A
:100EE00008958F929F92AF92BF92CF92DF92EF922E
:100EF000FF9260910F01709110018091110190910A
:100F00001201611571058105910521F464E279ED05
:100F10008BE597E02DE133EF41E050E00E94C907F7
:100F200049015A019B01AC01A7EAB1E40E94E8071C
:100F30006B017C01ACEEB4EFA50194010E94F607B1
:100F4000C60ED71EE81EF91EF7FE06C081E0C81ABD
:100F5000D108E10880E8F80AC0920F01D092100190
:100F6000E0921101F0921201C701B6019F77FF9044
:100F7000EF90DF90CF90BF90AF909F908F900895AB
:100F800060930F01709310018093110190931201EF
:100F90000895052E97FB1EF400940E94E00757FD6C
:100FA00007D00E94FB0707FC03D04EF40C94E00727
:100FB00050954095309521953F4F4F4F5F4F089585
:100FC00090958095709561957F4F8F4F9F4F0895B5
:100FD0000E941D08A59F900DB49F900DA49F800DA9
:100FE000911D11240895B7FF0C94E8070E94E807AB
:100FF000821B930B0895A1E21A2EAA1BBB1BFD01B5
:101000000DC0AA1FBB1FEE1FFF1FA217B307E407E7
:10101000F50720F0A21BB30BE40BF50B661F771F3F
:10102000881F991F1A9469F760957095809590951F
:101030009B01AC01BD01CF010895A29FB001B39FF8
:10104000C001A39F700D811D1124911DB29F700DD1
:10105000811D1124911D0895EE0FFF1F0590F4913D
:10106000E02D09940F931F93CF93DF938230910566
:1010700010F482E090E0E0916303F091640330E0CB
:1010800020E0B0E0A0E0309799F42115310509F493
:101090004AC0281B390B24303105D8F58A819B8141
:1010A0006115710589F1FB0193838283FE0111C0F3
:1010B000408151810281138148175907E0F0481798
:1010C000590799F4109761F012960C9312971396A2
:1010D0001C933296CF01DF91CF911F910F9108950C
:1010E0000093630310936403F4CF2115310551F08D
:1010F0004217530738F0A901DB019A01BD01DF0156
:10110000F801C1CFEF01F9CF90936403809363039B
:10111000CDCFFE01E20FF31F81939193225031094D
:1011200039832883D7CF2091610330916203232B29
:1011300041F4209115013091160130936203209300
:10114000610320911301309114012115310541F4FF
:101150002DB73EB74091170150911801241B350B54
:10116000E0916103F0916203E217F307A0F42E1BF4
:101170003F0B2817390778F0AC014E5F5F4F2417FB
:10118000350748F04E0F5F1F509362034093610391
:10119000819391939FCFF0E0E0E09CCFCF93DF93DA
:1011A0000097E9F0FC01329713821282A091630349
:1011B000B0916403ED0130E020E01097A1F42081AC
:1011C0003181820F931F20916103309162032817B0
:1011D000390709F061C0F0936203E0936103DF9186
:1011E000CF910895EA01CE17DF07E8F54A815B81C8
:1011F0009E0141155105B1F7E901FB83EA8349914D
:101200005991C40FD51FEC17FD0761F480819181BE
:101210000296840F951FE9019983888382819381C7
:101220009B838A83F0E0E0E012968D919C91139766
:101230000097B9F52D913C911197CD010296820F3F
:10124000931F20916103309162032817390739F603
:10125000309751F51092640310926303B0936203C8
:10126000A0936103BCCFD383C28340815181840F9B
:10127000951FC817D90761F44E5F5F4F8881998128
:10128000480F591F518340838A819B8193838283B6
:101290002115310509F0B0CFF0936403E0936303A7
:1012A0009ECFFD01DC01C0CF13821282D7CF10E0A8
:1012B000C2E6D0E004C0FE010E942C082196C3368D
:1012C000D107C9F7F894FFCF03000800010100041B
:1012D0000008000500080001000000000065038010
:0212E00000000C
:107E0000112484B714BE81FFF0D085E080938100F7
:107E100082E08093C00088E18093C10086E0809377
:107E2000C20080E18093C4008EE0C9D0259A86E02C
:107E300020E33CEF91E0309385002093840096BBD3
:107E4000B09BFECF1D9AA8958150A9F7CC24DD24C4
:107E500088248394B5E0AB2EA1E19A2EF3E0BF2EE7
:107E6000A2D0813461F49FD0082FAFD0023811F036
:107E7000013811F484E001C083E08DD089C08234E0
:107E800011F484E103C0853419F485E0A6D080C0E4
:107E9000853579F488D0E82EFF2485D0082F10E0AE
:107EA000102F00270E291F29000F111F8ED06801E7
:107EB0006FC0863521F484E090D080E0DECF843638
:107EC00009F040C070D06FD0082F6DD080E0C81688
:107ED00080E7D80618F4F601B7BEE895C0E0D1E017
:107EE00062D089930C17E1F7F0E0CF16F0E7DF06D8
:107EF00018F0F601B7BEE89568D007B600FCFDCFD4
:107F0000A601A0E0B1E02C9130E011968C91119780
:107F100090E0982F8827822B932B1296FA010C0160
:107F200087BEE89511244E5F5F4FF1E0A038BF0790
:107F300051F7F601A7BEE89507B600FCFDCF97BE46
:107F4000E89526C08437B1F42ED02DD0F82E2BD052
:107F50003CD0F601EF2C8F010F5F1F4F84911BD097
:107F6000EA94F801C1F70894C11CD11CFA94CF0C13
:107F7000D11C0EC0853739F428D08EE10CD085E9AC
:107F80000AD08FE07ACF813511F488E018D01DD067
:107F900080E101D065CF982F8091C00085FFFCCF94
:107FA0009093C60008958091C00087FFFCCF809118
:107FB000C00084FD01C0A8958091C6000895E0E648
:107FC000F0E098E1908380830895EDDF803219F02E
:107FD00088E0F5DFFFCF84E1DECF1F93182FE3DFCA
:107FE0001150E9F7F2DF1F91089580E0E8DFEE27F6
:047FF000FF270994CA
:027FFE00040479
:00000001FF
